:020000040800F2
:1000000000000220F9130008F9120008011300088B
:10001000091300081113000819130008000000005C
:100020000000000000000000000000002113000894
:100030002F130008000000003D1300084B130008B8
:10004000491400084914000849140008491400081C
:10005000491400084914000849140008491400080C
:1000600049140008491400084914000849140008FC
:1000700049140008491400084914000849140008EC
:1000800049140008491400084914000849140008DC
:1000900049140008491400084914000849140008CC
:1000A00049140008491400084914000849140008BC
:1000B00049140008491400084914000849140008AC
:1000C000491400084914000849140008491400089C
:1000D000491400084914000849140008491400088C
:1000E000571300084914000849140008491400086F
:1000F000491400084914000849140008491400086C
:10010000491400084914000849140008491400085B
:10011000491400084914000849140008491400084B
:10012000491400084914000849140008491400083B
:1001300049140008000000000000000049140008F5
:10014000491400084914000849140008491400081B
:10015000491400084914000849140008491400080B
:1001600049140008491400084914000849140008FB
:100170004914000849140008491400080000000050
:10018000000000004914000800000000000000000A
:100190004914000800000000000000004914000895
:1001A00000000000000000000000000049140008EA
:1001B00049140008491400084914000849140008AB
:0401C00049140008D6
:1001D00010B5054C237833B9044B13B10448AFF381
:1001E00000800123237010BD5C000020000000008F
:1001F0005C3A000808B5034B1BB103490348AFF351
:10020000008008BD00000000600000205C3A00088B
:10021000034613F8012B002AFBD1181A0138704746
:1002200001F0FF01102A2BDB10F0070F08D010F8A7
:10023000013B013A8B422DD010F0070F42B3F6D1AB
:10024000F0B441EA012141EA014122F007047FF0C4
:1002500000070023F0E80256083C85EA010586EA1B
:10026000010685FA47F5A3FA87F586FA47F6A5FA57
:1002700087F68EB9EED1F0BC01F0FF0102F0070263
:1002800032B110F8013B013A83EA010313B1F8D10E
:100290000020704701387047002D06BF35460338EF
:1002A000073815F0010F07D1013015F4807F02BF28
:1002B000013015F4C03F0130F0BC0138704700BF79
:1002C00053B94AB9002908BF00281CBF4FF0FF31BD
:1002D0004FF0FF3000F06AB9ADF1080C6DE904CEC3
:1002E00000F006F8DDF804E0DDE9022304B0704711
:1002F0002DE9F047089D0C46002B4ED194468C45C5
:100300008646B2FA82F262D94AB1C2F12003914024
:1003100020FA03F30CFA02FC194300FA02FE4FEA3A
:100320001C471FFA8CF6B1FBF7F44FEA1E4307FB9C
:10033000141143EA014304FB06F199420AD91CEB6C
:10034000030304F1FF3080F01281994240F20F81E3
:10035000023C6344591A1FFA8EF3B1FBF7F007FB16
:10036000101143EA014300FB06F69E420AD91CEB3A
:10037000030300F1FF3180F0FC809E4240F2F980DF
:10038000634402389B1B40EA044000211DB1D34066
:100390000022C5E90032BDE8F0878B4205D90DB1D6
:1003A000C5E9000100210846F5E7B3FA83F1002909
:1003B00046D1A34202D39042C0F0F080861A64EB8B
:1003C00003030120002DE6D0C5E90063E3E7002A1E
:1003D00040F09080A1EB0C044FEA1C481FFA8CF708
:1003E0000121B4FBF8F64FEA1E4308FB164443EA2A
:1003F000044307FB06F0984208D91CEB030306F1FF
:10040000FF3402D2984200F2CD8026461C1A1FFA11
:100410008EF3B4FBF8F008FB104443EA044300FBFE
:1004200007F79F4208D91CEB030300F1FF3402D207
:100430009F4200F2B0802046DB1B40EA0640A5E761
:10044000C1F120068B4022FA06F71F4320FA06FC72
:1004500004FA01F343EA0C03F44000FA01F8380C03
:100460004FEA1349B4FBF0FE1FFA87FC00FB1E4461
:1004700049EA04440EFB0CF9A14502FA01F20AD93B
:100480003C190EF1FF3A80F08480A14540F2818052
:10049000AEF1020E3C44A4EB09041FFA83F9B4FB4D
:1004A000F0F300FB134449EA044403FB0CFCA445AD
:1004B00007D93C1903F1FF3067D2A44565D9023B47
:1004C0003C4443EA0E40A0FB0293A4EB0C049C4284
:1004D000CE469C4651D34ED055B1B8EB0E0364EBDB
:1004E0000C0404FA06F6CB401E43CC40C5E9006478
:1004F000002150E7C2F1200320FA03F10CFA02FCBC
:1005000024FA03F394400C434FEA1C4800FA02FE1D
:100510001FFA8CF7B3FBF8F008FB1031230C43EA09
:10052000014300FB07F1994208D91CEB030300F1DA
:10053000FF362CD299422AD9023863445B1AA4B2FE
:10054000B3FBF8F108FB113344EA034401FB07F362
:10055000A34208D91CEB040401F1FF3613D2A342D5
:1005600011D902396444E41A41EA004139E70446EA
:10057000F0E6084606E7C845AED2B9EB020E63EBDB
:10058000070C0138A8E73146EDE7034699E7304606
:10059000D4E7D6467FE7634402384DE70646234654
:1005A00008460FE7023E634430E700BF704700BFD4
:1005B000F0B597B012AF012002F06AFD0346BB60B0
:1005C0004FF0FF330122B968204802F09AF9BB6866
:1005D0001B781946B86802F019FE78607B68002B1A
:1005E0001BD11B4E1B4B1193192310931A4B0F93C6
:1005F0001A4B0E936D4606F110040FCC0FC50FCCAD
:100600000FC50FCC0FC594E8030085E8030096E8FA
:100610000F0000F01FF9002314E00123FB730BE02F
:10062000FB7B7A68D1184FF0FF330122074802F0B4
:1006300068F9FB7B0133FB737B681B78FA7B9A427A
:10064000EED97B6818461437BD46F0BDC8000020BF
:1006500080000020743A0008BC3C0008843A00087E
:10066000F0B599B014AF78600B46FB707B6801332E
:100670001B78512B76D10A2002F00AFD0346FB605D
:100680004B4E4C4B11932D2310934B4B0F934B4BD5
:100690000E936D4606F110040FCC0FC50FCC0FC59D
:1006A0000FCC0FC594E8030085E8030096E80F001F
:1006B00000F0D0F802230093042301224049F86897
:1006C00002F0DAFD3A4EFB6812933E4B11932F2352
:1006D0001093394B0F93394B0E936D4606F110046E
:1006E0000FCC0FC50FCC0FC50FCC0FC594E803007E
:1006F00085E8030096E80F0000F0ACF8012000F058
:1007000067F8F868FFF784FD0346DBB2184600F08F
:100710005FF8F868FFF77CFD03469BB21946F8685E
:1007200000F068F8224EFB681293274B1193332395
:100730001093214B0F93214B0E936D4606F110043D
:100740000FCC0FC50FCC0FC50FCC0FC594E803001D
:1007500085E8030096E80F0000F07CF8F86802F0E6
:100760009FFC20E0124E194B119338231093124B2B
:100770000F93124B0E936D4606F110040FCC0FC56C
:100780000FCC0FC50FCC0FC594E8030085E803001C
:1007900096E80F0000F05EF8002000F019F8012044
:1007A00000F016F800BF00BF1437BD46F0BD00BF13
:1007B00080000020A83A0008CC3C0008843A0008D9
:1007C000C83A0008D43A0008EC3A0008103B000888
:1007D00080B582B000AF0346FB71F91D4FF0FF33C7
:1007E0000122034802F002F800BF0837BD4680BD71
:1007F000C800002080B582B000AF78600B467B80D7
:100800007A884FF0FF337968034801F0EFFF00BFAB
:100810000837BD4680BD00BFC800002080B584B049
:1008200000AF78602F21786802F06EFDF86009E073
:10083000FB680133FB60FB687B602F21786802F066
:1008400063FDF860FB68002BF2D17B681846103717
:10085000BD4680BD0FB480B5ADF51A7D02AF07F57A
:100860001A7C8CE80F0007F5307207F51873A3F5B2
:1008700017731A6007F51873A3F5177307F5CC7093
:100880001A68D7F8BC1202F02DFDD7F8B002FFF7B6
:10089000C5FF024607F1080007F5CC730193D7F8AE
:1008A000B8320093D7F8B4320C4902F0E5FC07F1F6
:1008B00008031846FFF7ACFC03469AB207F108019B
:1008C0004FF0FF3307F51A7001F090FF00BF07F5F6
:1008D0001877BD46BDE8804004B070473C3B000837
:1008E000F0B593B012AF00F0B1FD00F06FF800F07A
:1008F00043F900F0EDF800F0D7F800F013F92C4EB2
:100900002C4B1193722310932B4B0F932B4B0E9365
:100910006D4606F110040FCC0FC50FCC0FC50FCCE0
:100920000FC594E8030085E8030096E80F00FFF781
:1009300091FF234B1B78012B1CD11D4E214B119392
:10094000782310931C4B0F931C4B0E936D4606F1AE
:1009500010040FCC0FC50FCC0FC50FCC0FC594E8FA
:10096000030085E8030096E80F00FFF773FF00F02F
:1009700079F9DEE70E4E144B11937D2310930E4B45
:100980000F930E4B0E936D4606F110040FCC0FC55E
:100990000FCC0FC50FCC0FC594E8030085E803000A
:1009A00096E80F00FFF756FF00F0BCF9C1E700BF63
:1009B000800000204C3B0008E03C0008643B00083D
:1009C00010010020783B00088C3B000880B594B0F3
:1009D00000AF07F11C0334220021184602F08CFC02
:1009E00007F1080300221A605A609A60DA601A61FF
:1009F00000237B602A4B1B6C294A43F0805313640D
:100A0000274B1B6C03F080537B607B6800233B60AB
:100A1000244B1B6823F44043224A43F48043136071
:100A2000204B1B6803F440433B603B680223FB619F
:100A30000123BB621023FB6202237B630023BB63A1
:100A40001023FB634FF4A8733B6404237B640223ED
:100A5000BB640223FB6407F11C03184601F0D8FBBA
:100A60000346002B01D000F059FB0F23BB6002238B
:100A7000FB6000233B614FF480537B610023BB612B
:100A800007F108030221184601F078F80346002B0D
:100A900001D000F043FB00BF5037BD4680BD00BF12
:100AA000003802400070004080B500AF064B074A96
:100AB0001A60054800F04DFE0346002B01D000F0FF
:100AC0002DFB00BF80BD00BF780000200030024039
:100AD00080B500AF114B124A1A60104B4FF4E1324F
:100AE0005A600E4B00229A600C4B0022DA600B4BCE
:100AF00000221A61094B0C225A61084B00229A61AC
:100B0000064B0022DA61054801F020FE0346002B67
:100B100001D000F003FB00BF80BD00BF80000020BB
:100B20000044004080B500AF114B124A1A60104BD0
:100B30004FF4E1325A600E4B00229A600C4B0022B7
:100B4000DA600B4B00221A61094B0C225A61084BE8
:100B500000229A61064B0022DA61054801F0F6FD99
:100B60000346002B01D000F0D9FA00BF80BD00BFC2
:100B7000C80000200048004080B58AB000AF07F1EF
:100B8000140300221A605A609A60DA601A61002326
:100B90003B61314B1B6B304A43F0040313632E4B14
:100BA0001B6B03F004033B613B690023FB602A4B92
:100BB0001B6B294A43F080031363274B1B6B03F025
:100BC0008003FB60FB680023BB60234B1B6B224A46
:100BD00043F001031363204B1B6B03F00103BB6065
:100BE000BB6800237B601C4B1B6B1B4A43F002035A
:100BF0001363194B1B6B03F002037B607B680022BD
:100C00002021164800F088FF4FF400537B614FF419
:100C10000413BB610023FB6107F11403194610485C
:100C200000F0E6FD20237B610123BB610023FB6113
:100C300000233B6207F114031946084800F0D8FD71
:100C400000220021282000F04EFD282000F067FD42
:100C500000BF2837BD4680BD00380240000002407A
:100C600000080240F0B599B014AF274B1B68FB6039
:100C7000264EFB681293264B11934FF49D731093ED
:100C8000244B0F93244B0E936D4606F110040FCCAA
:100C90000FC50FCC0FC50FCC0FC594E8030085E836
:100CA000030096E80F00FFF7D5FD1C4BBB60BB6847
:100CB0001B687B60154EBB681293194B11934FF460
:100CC0009F731093134B0F93134B0E936D4606F1C6
:100CD00010040FCC0FC50FCC0FC50FCC0FC594E877
:100CE000030085E8030096E80F00FFF7B3FDFB68FB
:100CF0003B603B6883F3088800BF7B68984700BF70
:100D00001437BD46F0BD00BF008000088000002001
:100D1000A43B0008E83C0008643B0008048000088D
:100D2000BC3B0008F0B595B012AF3D4E3D4B119362
:100D30004FF4A37310933C4B0F933C4B0E936D46B3
:100D400006F110040FCC0FC50FCC0FC50FCC0FC58B
:100D500094E8030085E8030096E80F00FFF77AFDAA
:100D6000FFF726FC78607B681B780133DBB21946FD
:100D7000786800F061F87B681B780133DBB21946B4
:100D8000786800F0B5F80346002B21D0244E284B9C
:100D900011934FF4A6731093234B0F93234B0E9391
:100DA0006D4606F110040FCC0FC50FCC0FC50FCC4C
:100DB0000FC594E8030085E8030096E80F00FFF7ED
:100DC00049FD0020FFF704FD0020FFF701FD22E0B0
:100DD000134E184B11934FF4A9731093124B0F93AA
:100DE000124B0E936D4606F110040FCC0FC50FCCBD
:100DF0000FC50FCC0FC594E8030085E8030096E803
:100E00000F00FFF727FD7B681B780133DBB2194623
:100E10007868FFF725FC00BF0C37BD46F0BD00BF6A
:100E200080000020E03B0008043D0008643B00080F
:100E3000003C0008103C0008F0B599B014AF786091
:100E40000B46FB70254E264B119340F2591310931D
:100E5000244B0F93244B0E936D4606F110040FCCD8
:100E60000FC50FCC0FC50FCC0FC594E8030085E864
:100E7000030096E80F00FFF7EDFC0023FB7324E06E
:100E8000FB7BFA7B79680A441278144E1392129312
:100E9000164B11934FF4AE731093124B0F93124BEA
:100EA0000E936D4606F110040FCC0FC50FCC0FC585
:100EB0000FCC0FC594E8030085E8030096E80F0007
:100EC000FFF7C8FCFB7B0133FB73FA7BFB789A428C
:100ED000D6D300BF00BF1437BD46F0BD8000002050
:100EE000203C0008203D0008643B0008343C00081A
:100EF0002DE9F0479EB014AF78600B46FB706B464F
:100F00009A46FB78043BBB61B9694B1E7B610A467C
:100F10000023904699464FF000024FF000034FEA3D
:100F2000491343EAD8634FEA48120A46002314469D
:100F30001D464FF000024FF000036B0143EAD463FB
:100F400062010B469B000733DB08DB00ADEB030DB2
:100F500014AB03339B089B003B61002387F82730C9
:100F60000FE097F827307A6813441B7897F827200A
:100F700019463B6943F8221097F82730013387F868
:100F8000273097F82730BA699A42EADCBB691A46DB
:100F90003969334800F0F9FBF860324EFB68129370
:100FA000314B11934FF4B7731093304B0F93304B79
:100FB0000E936D4606F110040FCC0FC50FCC0FC574
:100FC0000FCC0FC594E8030085E8030096E80F00F6
:100FD000FFF740FC00233B620023FB7712E0FA7F1F
:100FE000BB6913441A467B6813441B781A46FB7F7F
:100FF000DB0002FA03F31A463B6A13433B62FB7FB2
:101000000133FB77FB7F032BE9D9164E3B6A129322
:10101000184B119340F277131093144B0F93144B0A
:101020000E936D4606F110040FCC0FC50FCC0FC503
:101030000FCC0FC594E8030085E8030096E80F0085
:10104000FFF708FCFA683B6A9A4201D1002300E0EE
:101050000123D54618462837BD46BDE8F08700BFB6
:101060007800002080000020543C0008343D000837
:10107000643B00086C3C0008F0B595B012AF034625
:10108000FB80204E204B11934FF4C17310931F4BE4
:101090000F931F4B0E936D4606F110040FCC0FC536
:1010A0000FCC0FC50FCC0FC594E8030085E80300F3
:1010B00096E80F00FFF7CEFBFB88B3F5005F1DD16C
:1010C000104E144B119340F2851310930F4B0F9356
:1010D0000F4B0E936D4606F110040FCC0FC50FCCCD
:1010E0000FC50FCC0FC594E8030085E8030096E810
:1010F0000F00FFF7AFFB084B01221A7000BF0C373F
:10110000BD46F0BD80000020803C0008443D000842
:10111000643B00089C3C00081001002080B400AF34
:1011200072B600BF00BFFDE780B582B000AF0023FC
:101130007B60104B5B6C0F4A43F4804353640D4B50
:101140005B6C03F480437B607B6800233B60094B4E
:101150001B6C084A43F080531364064B1B6C03F06E
:1011600080533B603B68072000F0B2FA00BF0837AD
:10117000BD4680BD0038024080B485B000AF7860C5
:101180007B681B680B4A93420DD10023FB600A4B1E
:101190001B6B094A43F480531363074B1B6B03F427
:1011A0008053FB60FB6800BF1437BD465DF8047BCD
:1011B000704700BF003002400038024080B58CB05C
:1011C00000AF786007F11C0300221A605A609A6031
:1011D000DA601A617B681B68414A93422CD1002374
:1011E000BB61404B1B6C3F4A43F4003313643D4BDF
:1011F0001B6C03F40033BB61BB6900237B61394B7B
:101200001B6B384A43F001031363364B1B6B03F02F
:1012100001037B617B690C23FB6102233B6200239A
:101220007B620323BB620723FB6207F11C031946A1
:101230002D4800F0DDFA4FE07B681B682B4A934293
:101240004AD100233B61274B1B6C264A43F4802381
:101250001364244B1B6C03F480233B613B69002324
:10126000FB60204B1B6B1F4A43F0040313631D4BB1
:101270001B6B03F00403FB60FB680023BB60194B8E
:101280001B6B184A43F002031363164B1B6B03F0EE
:101290000203BB60BB682023FB6102233B62002387
:1012A0007B620323BB620723FB6207F11C03194621
:1012B0000F4800F09DFA4FF48063FB6102233B620C
:1012C00000237B620323BB620723FB6207F11C033D
:1012D0001946084800F08CFA00BF3037BD4680BD83
:1012E0000044004000380240000002400048004036
:1012F000000802400004024080B400AF00BFFDE7D8
:1013000080B400AF00BFFDE780B400AF00BFFDE7D1
:1013100080B400AF00BFFDE780B400AF00BFFDE7C1
:1013200080B400AF00BFBD465DF8047B704780B459
:1013300000AF00BFBD465DF8047B704780B400AFCE
:1013400000BFBD465DF8047B704780B500AF00F07C
:10135000CFF800BF80BD80B500AF4FF4005000F063
:10136000F5FB00BF80BD000080B586B000AF78609F
:10137000144A154BD31A7B617B693B61134B1B6885
:10138000002B02D1114B124A1A60104B1A687B686D
:1013900013443A699A4207D201F0D4FF03460C2263
:1013A0001A604FF0FF3309E0084B1B68FB60074BE6
:1013B0001A687B681344054A1360FB68184618379F
:1013C000BD4680BD00000220000400001401002082
:1013D0006802002080B400AF064BD3F88830054A7D
:1013E00043F47003C2F8883000BFBD465DF8047B4B
:1013F000704700BF00ED00E0DFF834D0FFF7EAFFF0
:101400000C480D490D4A002302E0D458C45004335F
:10141000C4188C42F9D30A4A0A4C002301E0136035
:101420000432A242FBD301F093FFFFF759FA704751
:1014300000000220000000205C000020B83D0008F1
:101440005C00002064020020FEE7000080B500AFD1
:101450000E4B1B680D4A43F4007313600B4B1B6863
:101460000A4A43F480631360084B1B68074A43F43D
:1014700080731360032000F02BF9002000F008F8BF
:10148000FFF752FE0023184680BD00BF003C02401B
:1014900080B582B000AF7860124B1A68124B1B788F
:1014A00019464FF47A73B3FBF1F3B2FBF3F318462A
:1014B00000F043F90346002B01D001230EE07B68C6
:1014C0000F2B0AD8002279684FF0FF3000F00BF99B
:1014D000064A7B681360002300E0012318460837A2
:1014E000BD4680BD00000020080000200400002050
:1014F00080B400AF064B1B781A46064B1B6813449A
:10150000044A136000BFBD465DF8047B704700BF0E
:10151000080000201801002080B400AF034B1B68B6
:101520001846BD465DF8047B704700BF18010020D7
:1015300080B485B000AF78607B6803F00703FB6080
:101540000C4BDB68BB60BA684FF6FF031340BB600F
:10155000FB681A02BB68134343F0BF6343F40033D4
:10156000BB60044ABB68D36000BF1437BD465DF85A
:10157000047B704700ED00E080B400AF044BDB68F3
:101580001B0A03F007031846BD465DF8047B70474D
:1015900000ED00E080B483B000AF0346FB7197F923
:1015A0000730002B0BDBFB7903F01F02074997F98B
:1015B00007305B09012000FA02F241F8232000BF46
:1015C0000C37BD465DF8047B704700BF00E100E0CA
:1015D00080B483B000AF03463960FB7197F90730E0
:1015E000002B0ADB3B68DAB20C4997F9073012018D
:1015F000D2B20B4483F800230AE03B68DAB2084910
:10160000FB7903F00F03043B1201D2B20B441A76AC
:1016100000BF0C37BD465DF8047B704700E100E079
:1016200000ED00E080B489B000AFF860B9607A6086
:10163000FB6803F00703FB61FB69C3F10703042B9D
:1016400028BF0423BB61FB690433062B02D9FB6965
:10165000033B00E000237B614FF0FF32BB6902FADD
:1016600003F3DA43BB681A407B699A404FF0FF31BD
:101670007B6901FA03F3D9437B680B401343184697
:101680002437BD465DF8047B7047000080B582B00A
:1016900000AF78607B68013BB3F1807F01D3012309
:1016A0000FE00A4A7B68013B53600F214FF0FF3087
:1016B000FFF78EFF054B00229A60044B07221A6049
:1016C000002318460837BD4680BD00BF10E000E08B
:1016D00080B582B000AF78607868FFF729FF00BF5F
:1016E0000837BD4680BD80B586B000AF0346B960FF
:1016F0007A60FB7300237B61FFF73EFF78617A68B5
:10170000B9687869FFF78EFF024697F90F301146E6
:101710001846FFF75DFF00BF1837BD4680BD80B596
:1017200082B000AF0346FB7197F907301846FFF708
:1017300031FF00BF0837BD4680BD80B582B000AF25
:1017400078607868FFF7A2FF034618460837BD4661
:1017500080BD80B582B000AF78607B68002B01D17E
:1017600001230EE07B685B79DBB2002B05D17B683F
:1017700000221A717868FFF7FFFC7B6801225A711A
:10178000002318460837BD4680BD80B487B000AF3F
:10179000F860B9607A6000233B61FB6802225A71ED
:1017A000FB681B689A68FB681B6842F001029A603C
:1017B00000237B610AE07B699B00BA681A44FB68DE
:1017C0001B6812681A607B6901337B617A697B68E8
:1017D0009A42F0D3FB681B681B683B61FB680122DF
:1017E0005A713B6918461C37BD465DF8047B70474B
:1017F00080B489B000AF7860396000237B6100233A
:101800003B610023BB610023FB6165E10122FB69B1
:1018100002FA03F37B613B681B687A6913403B6102
:101820003A697B699A4240F054813B685B6803F0F7
:101830000303012B05D03B685B6803F00303022B15
:1018400030D17B689B68BB61FB695B00032202FAB5
:1018500003F3DB43BA691340BB613B68DA68FB6999
:101860005B0002FA03F3BA691343BB617B68BA6990
:101870009A607B685B68BB610122FB6902FA03F333
:10188000DB43BA691340BB613B685B681B0903F02B
:101890000102FB6902FA03F3BA691343BB617B6877
:1018A000BA695A603B685B6803F00303032B17D0E7
:1018B0007B68DB68BB61FB695B00032202FA03F310
:1018C000DB43BA691340BB613B689A68FB695B0004
:1018D00002FA03F3BA691343BB617B68BA69DA6041
:1018E0003B685B6803F00303022B23D1FB69DA0832
:1018F0007B68083253F82230BB61FB6903F00703B1
:101900009B000F2202FA03F3DB43BA691340BB6169
:101910003B681A69FB6903F007039B0002FA03F3B3
:10192000BA691343BB61FB69DA087B680832B9699D
:1019300043F822107B681B68BB61FB695B000322D4
:1019400002FA03F3DB43BA691340BB613B685B688F
:1019500003F00302FB695B0002FA03F3BA69134365
:10196000BB617B68BA691A603B685B6803F440330B
:10197000002B00F0AE800023FB605D4B5B6C5C4A8B
:1019800043F4804353645A4B5B6C03F48043FB6025
:10199000FB68584AFB699B08023352F82330BB614D
:1019A000FB6903F003039B000F2202FA03F3DB43FE
:1019B000BA691340BB617B684F4A934225D07B686C
:1019C0004E4A93421FD07B684D4A934219D07B68A0
:1019D0004C4A934213D07B684B4A93420DD07B68AC
:1019E0004A4A934207D07B68494A934201D1062371
:1019F0000CE007230AE0052308E0042306E00323A4
:101A000004E0022302E0012300E00023FA6902F06F
:101A1000030292009340BA691343BB613549FB69E5
:101A20009B080233BA6941F823203A4B9B68BB619B
:101A30003B69DB43BA691340BB613B685B6803F4F5
:101A40008013002B03D0BA693B691343BB61314A51
:101A5000BB6993602F4BDB68BB613B69DB43BA69B1
:101A60001340BB613B685B6803F40013002B03D099
:101A7000BA693B691343BB61264ABB69D360254BF6
:101A80005B68BB613B69DB43BA691340BB613B6880
:101A90005B6803F40033002B03D0BA693B6913433E
:101AA000BB611C4ABB6953601A4B1B68BB613B6935
:101AB000DB43BA691340BB613B685B6803F4803366
:101AC000002B03D0BA693B691343BB61114ABB6960
:101AD0001360FB690133FB61FB690F2B7FF696AE48
:101AE00000BF00BF2437BD465DF8047B704700BFD0
:101AF000003802400038014000000240000402406B
:101B000000080240000C0240001002400014024095
:101B100000180240003C014080B483B000AF786000
:101B20000B467B8013467B707B78002B03D07A8832
:101B30007B689A6103E07B881A047B689A6100BF26
:101B40000C37BD465DF8047B7047000080B582B05D
:101B500000AF0346FB80084B5A69FB881340002BFB
:101B600006D0054AFB885361FB881846FFF784FAC4
:101B700000BF0837BD4680BD003C014080B584B041
:101B800000AF786039607B68002B01D10123CCE085
:101B9000684B1B6803F00F033A689A420CD9654BF7
:101BA0003A68D2B21A70634B1B6803F00F033A68AD
:101BB0009A4201D00123B8E07B681B6803F002035E
:101BC000002B20D07B681B6803F00403002B05D09A
:101BD000594B9B68584A43F4E05393607B681B68F9
:101BE00003F00803002B05D0534B9B68524A43F483
:101BF00060439360504B9B6823F0F0027B689B68C6
:101C00004D4913438B607B681B6803F00103002B75
:101C100044D07B685B68012B07D1474B1B6803F4FA
:101C20000033002B19D101237FE07B685B68022B16
:101C300003D07B685B68032B07D13F4B1B6803F025
:101C40000073002B09D101236FE03B4B1B6803F0AD
:101C50000203002B01D1012367E0374B9B6823F07F
:101C600003027B685B68344913438B60FFF754FCC5
:101C7000F8600AE0FFF750FC0246FB68D31A41F215
:101C80008832934201D903234FE02B4B9B6803F02A
:101C90000C027B685B689B009A42EBD1254B1B686A
:101CA00003F00F033A689A420CD2224B3A68D2B240
:101CB0001A70204B1B6803F00F033A689A4201D058
:101CC000012332E07B681B6803F00403002B08D07B
:101CD000194B9B6823F4E0527B68DB681649134379
:101CE0008B607B681B6803F00803002B09D0124B44
:101CF0009B6823F460427B681B69DB000E49134339
:101D00008B6000F055F802460B4B9B681B0903F0F3
:101D10000F030A49CB5C22FA03F3094A1360094B0B
:101D20001B681846FFF7B4FB002318461037BD4662
:101D300080BD00BF003C0240003802405C3D00080E
:101D4000000000200400002080B400AF034B1B689B
:101D50001846BD465DF8047B704700BF00000020B8
:101D600080B500AFFFF7F0FF0246054B9B689B0A6A
:101D700003F007030349CB5C22FA03F3184680BD46
:101D8000003802406C3D000880B500AFFFF7DCFF73
:101D90000246054B9B685B0B03F007030349CB5CD2
:101DA00022FA03F3184680BD003802406C3D00085B
:101DB0002DE9B04FAEB000AF0023C7F8AC30002320
:101DC000C7F8B4300023C7F8A8300023C7F8A43000
:101DD0000023C7F8B030CB4B9B6803F00C030C2BEF
:101DE00000F2068201A252F823F000BF211E000873
:101DF000F1210008F1210008F1210008291E000846
:101E0000F1210008F1210008F1210008311E00082D
:101E1000F1210008F1210008F1210008212000082B
:101E2000B94BC7F8B030E7E1B84BC7F8B030E3E1E1
:101E3000B44B5B6803F03F03C7F8AC30B14B5B6851
:101E400003F48003002B71D0AE4B5B689B0900222A
:101E5000C7F89830C7F89C20D7F89830C3F3080328
:101E6000C7F890300023C7F89430D7E924452246BC
:101E70002B464FF000004FF00001590141EAD261BA
:101E8000500102460B462146511A3964294663EB3C
:101E900001037B644FF000024FF00003D7E9108983
:101EA00049468B01414643EA916341468A014146D6
:101EB000511AB963494663EB0103FB634FF000021B
:101EC0004FF00003D7E90E894946CB00414643EA6B
:101ED00051734146CA0010461946034622469B18D4
:101EE0003B632B460A4642EB03037B634FF0000241
:101EF0004FF00003D7E90C4529464B02214643EA3F
:101F0000D15321464A0210461946D7F8AC30002278
:101F1000C7F88830C7F88C20D7E92223FEF7D0F91C
:101F200002460B461346C7F8B43067E0754B5B6852
:101F30009B090022C7F88030C7F88420D7F880308A
:101F4000C3F30803BB670023FB67D7E91E4522469E
:101F50002B464FF000004FF00001590141EAD261D9
:101F6000500102460B462146511AB962294663EBDD
:101F70000103FB624FF000024FF00003D7E90A892A
:101F800049468B01414643EA916341468A014146F5
:101F9000B2EB010A494663EB010B4FF000024FF030
:101FA00000034FEACB0343EA5A734FEACA02924650
:101FB0009B4623461AEB03033B622B464BEB030382
:101FC0007B624FF000024FF00003D7E90845294635
:101FD0008B02214643EA915321468A021046194654
:101FE000D7F8AC3000223B677A67D7E91C23FEF7AD
:101FF00067F902460B461346C7F8B430414B5B689D
:102000001B0C03F0030301335B00C7F8A830D7F8BB
:10201000B420D7F8A830B2FBF3F3C7F8B030EBE048
:10202000384B5B6803F03F03C7F8AC30354B5B6857
:1020300003F48003002B6BD0324B5B689B090022BA
:10204000BB66FA66BB6EC3F308033B6600237B6680
:10205000D7E9184522462B464FF000004FF000010B
:10206000590141EAD261500102460B462146511AFC
:10207000B961294663EB0103FB614FF000024FF0A9
:102080000003D7E906AB59468B01514643EA9163F9
:1020900051468A015146B2EB0108594663EB0109EA
:1020A0004FF000024FF000034FEAC90343EA5873B0
:1020B0004FEAC80290469946234618EB03033B615A
:1020C0002B4649EB03037B614FF000024FF0000306
:1020D000D7E9044529464B02214643EAD15321461C
:1020E0004A0210461946D7F8AC300022BB65FA65A3
:1020F000D7E91623FEF7E4F802460B461346C7F865
:10210000B43065E0003802400024F40000127A0088
:102110003D4B5B689B09002218461146C0F308033B
:102120003B6500237B65D7E9148942464B464FF057
:1021300000004FF00001590141EAD261500102460E
:102140000B464146511AB960494663EB0103FB60F7
:102150004FF000024FF00003D7E902AB59468B0164
:10216000514643EA916351468A015146541A5946F1
:1021700063EB01054FF000024FF00003EB0043EA70
:102180005473E20014461D464346E3183B604B4639
:1021900045EB03037B604FF000024FF00003D7E9EB
:1021A000004529468B02214643EA915321468A0283
:1021B00010461946D7F8AC300022BB64FA64D7E960
:1021C0001223FEF77DF802460B461346C7F8B430DB
:1021D0000D4B5B681B0F03F00703C7F8A430D7F85B
:1021E000B420D7F8A430B2FBF3F3C7F8B03003E063
:1021F000064BC7F8B03000BFD7F8B0301846B83734
:10220000BD46BDE8B08F00BF003802400024F40096
:1022100080B586B000AF78607B68002B01D10123C8
:102220008DE27B681B6803F00103002B00F08380C4
:10223000944B9B6803F00C03042B19D0914B9B68C3
:1022400003F00C03082B06D18E4B5B6803F480036C
:10225000B3F5800F0CD08B4B9B6803F00C030C2B59
:1022600012D1884B5B6803F48003B3F5800F0BD168
:10227000844B1B6803F40033002B5BD07B685B68E6
:10228000002B57D101235AE27B685B68B3F5803F8E
:1022900006D17C4B1B687B4A43F4803313601DE0FE
:1022A0007B685B68B3F5A02F0CD1764B1B68754A31
:1022B00043F480231360734B1B68724A43F48033EA
:1022C00013600BE06F4B1B686E4A23F4803313607E
:1022D0006C4B1B686B4A23F4802313607B685B683C
:1022E000002B13D0FFF718F9386108E0FFF714F955
:1022F00002463B69D31A642B01D903231FE2614BC9
:102300001B6803F40033002BF0D014E0FFF704F94E
:10231000386108E0FFF700F902463B69D31A642BE5
:1023200001D903230BE2574B1B6803F40033002B46
:10233000F0D100E000BF7B681B6803F00203002BB4
:102340006FD0504B9B6803F00C03002B17D04D4B04
:102350009B6803F00C03082B05D14A4B5B6803F420
:102360008003002B0BD0474B9B6803F00C030C2B16
:102370001CD1444B5B6803F48003002B16D1414B06
:102380001B6803F00203002B05D07B68DB68012B80
:1023900001D00123D3E13B4B1B6823F0F8027B689B
:1023A0001B69DB00374913430B603AE07B68DB684D
:1023B000002B20D0344B01221A60FFF7ADF83861B2
:1023C00008E0FFF7A9F802463B69D31A022B01D9AE
:1023D0000323B4E12B4B1B6803F00203002BF0D066
:1023E000284B1B6823F0F8027B681B69DB0025493A
:1023F00013430B6015E0244B00221A60FFF78CF8A2
:10240000386108E0FFF788F802463B69D31A022BCF
:1024100001D9032393E11B4B1B6803F00203002B3C
:10242000F0D17B681B6803F00803002B36D07B6873
:102430005B69002B16D0154B01221A60FFF76CF870
:10244000386108E0FFF768F802463B69D31A022BAF
:1024500001D9032373E10B4B5B6F03F00203002BE5
:10246000F0D01BE0094B00221A60FFF755F83861E5
:102470000EE0FFF751F802463B69D31A022B07D949
:1024800003235CE10038024000004742800E4742CF
:102490008A4B5B6F03F00203002BEAD17B681B6859
:1024A00003F00403002B00F097800023FB75834B9F
:1024B0001B6C03F08053002B0FD10023BB607F4BBC
:1024C0001B6C7E4A43F0805313647C4B1B6C03F0FF
:1024D0008053BB60BB680123FB75794B1B6803F419
:1024E0008073002B18D1764B1B68754A43F48073B8
:1024F0001360FFF711F8386108E0FFF70DF80246A6
:102500003B69D31A022B01D9032318E16C4B1B68DA
:1025100003F48073002BF0D07B689B68012B06D1FD
:10252000664B1B6F654A43F0010313671CE07B6831
:102530009B68052B0CD1614B1B6F604A43F0040371
:1025400013675E4B1B6F5D4A43F0010313670BE09B
:102550005A4B1B6F594A23F001031367574B1B6FEC
:10256000564A23F0040313677B689B68002B15D041
:10257000FEF7D2FF38610AE0FEF7CEFF02463B6964
:10258000D31A41F28832934201D90323D7E04B4B4F
:102590001B6F03F00203002BEED014E0FEF7BCFF2C
:1025A00038610AE0FEF7B8FF02463B69D31A41F2F0
:1025B0008832934201D90323C1E0404B1B6F03F0E3
:1025C0000203002BEED1FB7D012B05D13B4B1B6C95
:1025D0003A4A23F0805313647B689B69002B00F018
:1025E000AD80364B9B6803F00C03082B60D07B68F2
:1025F0009B69022B45D1334B00221A60FEF78CFFFA
:10260000386108E0FEF788FF02463B69D31A022BC7
:1026100001D9032393E0294B1B6803F00073002BBF
:10262000F0D17B68DA697B681B6A1A437B685B6A56
:102630009B011A437B689B6A5B08013B1B041A439E
:102640007B68DB6A1B061A437B681B6B1B071B49F5
:1026500013434B601B4B01221A60FEF75DFF38618C
:1026600008E0FEF759FF02463B69D31A022B01D955
:10267000032364E0114B1B6803F00073002BF0D0C0
:102680005CE0104B00221A60FEF746FF386108E05C
:10269000FEF742FF02463B69D31A022B01D90323FE
:1026A0004DE0064B1B6803F00073002BF0D145E0B2
:1026B0007B689B69012B07D1012340E00038024071
:1026C00000700040600047421F4B5B68FB607B6806
:1026D0009B69012B30D0FB6803F480027B68DB69C7
:1026E0009A4229D1FB6803F03F027B681B6A9A4239
:1026F00022D1FA6847F6C07313407A68526A920191
:10270000934219D1FB6803F440327B689B6A5B08F3
:10271000013B1B049A420FD1FB6803F070627B6897
:10272000DB6A1B069A4207D1FB6803F0E0427B6834
:102730001B6B1B079A4201D0012300E000231846BF
:102740001837BD4680BD00BF0038024080B582B05A
:1027500000AF78607B68002B01D1012342E07B68E9
:1027600093F84130DBB2002B06D17B68002283F85E
:1027700040207868FEF722FD7B68242283F8412000
:102780007B681B68DA687B681B6822F40052DA6099
:10279000786800F009FA7B681B681A697B681B6817
:1027A00022F490421A617B681B685A697B681B6837
:1027B00022F02A025A617B681B68DA687B681B6812
:1027C00042F40052DA607B6800225A647B6820225F
:1027D00083F841207B68202283F842207B68002216
:1027E0005A63002318460837BD4680BD80B58AB0BD
:1027F00002AFF860B9603B601346FB8000237B6149
:10280000FB6893F84130DBB2202B75D1BB68002BFD
:1028100002D0FB88002B01D101236EE0FB6800226F
:102820005A64FB68212283F84120FEF775FE786127
:10283000FB68FA889A84FB68FA88DA84FB689B68EC
:10284000B3F5805F08D1FB681B69002B04D100231E
:10285000FB61BB68BB6103E0BB68FB610023BB613C
:102860002EE03B6800937B6900228021F86800F02D
:10287000DFF80346002B05D0FB68202283F84120B7
:1028800003233AE0FB69002B0BD1BB691B881A4676
:10289000FB681B68C2F308025A60BB690233BB6164
:1028A00007E0FB691A78FB681B685A60FB69013313
:1028B000FB61FB68DB8C9BB2013B9AB2FB68DA845C
:1028C000FB68DB8C9BB2002BCBD13B6800937B6910
:1028D00000224021F86800F0ABF80346002B05D039
:1028E000FB68202283F84120032306E0FB682022B6
:1028F00083F84120002300E0022318462037BD461C
:1029000080BD80B58AB002AFF860B9603B60134605
:10291000FB8000237B61FB6893F84230DBB2202B05
:1029200040F08180BB68002B02D0FB88002B01D1D6
:10293000012379E0FB6800225A64FB68222283F8B5
:102940004220FB6800221A63FEF7E6FD7861FB680F
:10295000FA889A85FB68FA88DA85FB689B68B3F584
:10296000805F08D1FB681B69002B04D10023FB6149
:10297000BB68BB6103E0BB68FB610023BB6147E050
:102980003B6800937B6900222021F86800F050F832
:102990000346002B05D0FB68202283F84220032346
:1029A00042E0FB69002B0CD1FB681B685B689BB2A3
:1029B000C3F308039AB2BB691A80BB690233BB61D7
:1029C0001FE0FB689B68B3F5805F07D0FB689B68DE
:1029D000002B0AD1FB681B69002B06D1FB681B6822
:1029E0005B68DAB2FB691A7008E0FB681B685B6819
:1029F000DBB203F07F03DAB2FB691A70FB690133C3
:102A0000FB61FB68DB8D9BB2013B9AB2FB68DA8508
:102A1000FB68DB8D9BB2002BB2D1FB68202283F8D0
:102A20004220002300E0022318462037BD4680BD27
:102A300080B586B000AFF860B9603B601346FB71AB
:102A40003BE03B6AB3F1FF3F37D0FEF765FD02463E
:102A50003B68D31A3A6A9A4202D33B6A002B01D1EF
:102A600003233AE0FB681B68DB6803F00403002BD8
:102A700023D0BB68802B20D0BB68402B1DD0FB68C7
:102A80001B681B6803F00803082B16D100237B6129
:102A9000FB681B681B687B61FB681B685B687B616C
:102AA0007B69F86800F01DF8FB6808225A64FB682F
:102AB000002283F8402001230FE0FB681B681A689E
:102AC000BB681340BA689A420CBF01230023DBB2F3
:102AD0001A46FB799A42B4D0002318461837BD46EF
:102AE00080BD80B495B000AF78607B681B680C3304
:102AF0007B637B6B53E8003F3B633B6B23F490733A
:102B0000FB647B681B680C33FA6C3A64FB63F96BFB
:102B10003A6C41E80023BB63BB6B002BE5D17B68BB
:102B20001B6814333B623B6A53E8003FFB61FB695F
:102B300023F00103BB647B681B681433BA6CFA6230
:102B4000BB62B96AFA6A41E800237B627B6A002BA8
:102B5000E5D17B681B6B012B19D17B681B680C339B
:102B6000FB60FB6853E8003FBB60BB6823F01003C9
:102B70007B647B681B680C337A6CBA617B61796912
:102B8000BA6941E800233B613B69002BE5D17B68D2
:102B9000202283F842207B6800221A6300BF54374A
:102BA000BD465DF8047B70472DE9B04FC0B000AF63
:102BB000C7F8F400D7F8F4301B681B6923F44050C1
:102BC000D7F8F430D968D7F8F4301A6840EA01032E
:102BD0001361D7F8F4309A68D7F8F4301B691A43B8
:102BE000D7F8F4305B691A43D7F8F430DB69134344
:102BF000C7F8F830D7F8F4301B68DB6823F41641C7
:102C000021F00C01D7F8F4301A68D7F8F8300B43EC
:102C1000D360D7F8F4301B685B6923F44070D7F8B1
:102C2000F4309969D7F8F4301A6840EA0103536127
:102C3000D7F8F4301A688F4B9A4205D0D7F8F430A1
:102C40001A688D4B9A4204D1FFF79EF8C7F8FC0032
:102C500003E0FFF785F8C7F8FC00D7F8F430DB692C
:102C6000B3F5004F40F00C81D7F8FC300022C7F8D4
:102C7000E830C7F8EC20D7E93A4522462B469118B0
:102C8000B9655B41FB65D7E91623214612EB0108C4
:102C9000294643EB01094FF000024FF000034FEAD1
:102CA000C90343EA58734FEAC8029046994623463F
:102CB00018EB0303C7F8E0302B4649EB0303C7F8D2
:102CC000E430D7F8F4305B680022C7F8D830C7F892
:102CD000DC20D7E936120B46DB183B65134642EB86
:102CE00003037B65D7E91423D7E93801FDF7E8FA38
:102CF00002460B46614BA3FB02235B091C01D7F87C
:102D0000FC300022C7F8D030C7F8D420D7E9348986
:102D100042464B469118B9645B41FB64D7E91223E4
:102D2000414612EB010A494643EB010B4FF000020A
:102D30004FF000034FEACB0343EA5A734FEACA024B
:102D400092469B4643461AEB0303C7F8C8304B46EE
:102D50004BEB0303C7F8CC30D7F8F4305B680022A4
:102D6000C7F8C030C7F8C420D7E930120B46DB18CB
:102D70003B64134642EB03037B64D7E91023D7E996
:102D80003201FDF79DFA02460B4611463B4BA3FB71
:102D900001235B09642202FB03F3CB1ADB0003F17E
:102DA0003202364BA3FB02235B095B0003F4F8738A
:102DB0001C44D7F8FC300022C7F8B830C7F8BC2054
:102DC000D7E92E8942464B469118B9635B41FB63B4
:102DD000D7E90E2341465118396349464B417B637D
:102DE0004FF000024FF00003D7E90CAB5946CB007F
:102DF000514643EA51735146CA00104619460346EC
:102E000042469B18C7F8B0304B460A4642EB0303D4
:102E1000C7F8B430D7F8F4305B680022C7F8A830A0
:102E2000C7F8AC20D7E92A120B46DB18BB62134661
:102E300042EB0303FB62D7E90A23D7E92C01FDF734
:102E40003FFA02460B460D4BA3FB02135B096421BC
:102E500001FB03F3D31ADB003233084AA2FB03233E
:102E60005B0903F00702D7F8F4301B6822449A602C
:102E700006E100BF00100140001401401F85EB5126
:102E8000D7F8FC300022C7F8A030C7F8A420D7E953
:102E9000288942464B46911839625B417B62D7E9EB
:102EA000082341465418494643EB01054FF0000200
:102EB0004FF00003EB0043EA5473E20014461D4652
:102EC0004346E318C7F898304B4645EB0303C7F871
:102ED0009C30D7F8F4305B680022C7F89030C7F810
:102EE00094204FF000024FF00003D7E92445294613
:102EF0008B00214643EA917321468A00D7E92601D7
:102F0000FDF7DEF902460B46604BA3FB02235B098B
:102F10001C01D7F8FC300022C7F88830C7F88C2095
:102F2000D7E9228942464B469118B9615B41FB6162
:102F3000D7E9062341465118396149464B417B6127
:102F40004FF000024FF00003D7E904AB5946CB0025
:102F5000514643EA51735146CA001046194603468A
:102F600042469B18C7F880304B460A4642EB0303A3
:102F7000C7F88430D7F8F4305B680022BB67FA6783
:102F80004FF000024FF00003D7E91E8949468B003D
:102F9000414643EA917341468A00D7E92001FDF793
:102FA0008FF902460B461146384BA3FB01235B0900
:102FB000642202FB03F3CB1A1B013233334AA2FB18
:102FC00003235B0903F0F0031C44D7F8FC30002214
:102FD0003B677A67D7E91C8942464B469118B9602E
:102FE0005B41FB60D7E902234146511839604946ED
:102FF0004B417B604FF000024FF00003D7E900AB7C
:103000005946CB00514643EA51735146CA00104617
:103010001946034642469B18BB664B460A4642EB9E
:103020000303FB66D7F8F4305B6800223B667A66E0
:103030004FF000024FF00003D7E9188949468B0092
:10304000414643EA917341468A00D7E91A01FDF7E8
:1030500037F902460B460D4BA3FB02135B096421B3
:1030600001FB03F3D31A1B013233084AA2FB0323EB
:103070005B0903F00F02D7F8F4301B6822449A6012
:1030800000BF07F58077BD46BDE8B08F1F85EB51C7
:10309000024B0146186800F02DB800BF0C0000205C
:1030A000024B0146186800F087B900BF0C000020F1
:1030B00070B50F4E0C463168054611B900F032F973
:1030C00030602146284600F02DF9431C03D14FF013
:1030D000FF34204670BDC41C24F00304A042F8D085
:1030E000211A284600F01EF90130F2D1EFE700BFA7
:1030F0001C0100202DE9F843CD1C25F003050835FF
:103100000C2D38BF0C25002D064601DBA94204D941
:103110000C2333600020BDE8F883DFF8D48000F092
:1031200069F8D8F800301C4644BB29463046FFF702
:10313000BFFF431C044658D1D8F800402746002F53
:1031400043D1002C4BD023683946304604EB0309A9
:1031500000F0E8F8814542D121686D1A29463046D1
:10316000FFF7A6FF01303AD023682B442360D8F83C
:1031700000305A6862BBC8F800700FE02268521B2A
:1031800020D40B2A17D96119A342256018BF5960B2
:10319000636808BFC8F8001062514B60304600F009
:1031A0002FF804F10B00231D20F00700C21A1CBFEA
:1031B0001B1AA350AFE76268A3420CBFC8F80020F7
:1031C0005A60EBE723466468AEE73C467F68B6E7A3
:1031D0001A465B68A342FBD100235360DEE70C2351
:1031E0003360304600F00CF894E70560D6E700BF86
:1031F00020010020014800F0CFB800BF600200208D
:10320000014800F0CAB800BF60020020024B0A4625
:103210000146186800F002B80C0000202DE9F041CA
:10322000804615460C4621B9BDE8F0411146FFF72E
:1032300061BF2AB900F0C0F800242046BDE8F08143
:1032400000F004F98542064602D8B5EB500FF4D8D9
:1032500029464046FFF74EFF07460028ECD0B5420E
:103260002A46214628BF324600F098F821464046BB
:1032700000F0A2F83C46E0E70EB400B59CB01DABF0
:10328000029006906FF000410948079104910949A6
:1032900053F8042B05910068019302A900F03AF954
:1032A000029B00221A701CB05DF804EB03B070475B
:1032B0000C0000200802FFFF00B59BB000910491B4
:1032C0006FF000410591029105490391694600F0B4
:1032D00021F9009B00221A701BB05DF804FB00BFAF
:1032E0000802FFFF13460A46014602480068FFF73E
:1032F000E3BF00BF0C00002002440346934200D10C
:10330000704703F8011BF9E7C9B20346184613F8E2
:10331000012B12B18A42F9D17047002918BF002051
:103320007047000038B5064D0023044608462B6060
:10333000FEF71AF8431C02D12B6803B1236038BD95
:103340005C020020014B1868704700BF0C00002091
:1033500070B50D4D0D4C641BA4100026A64209D17A
:103360000B4D0C4C00F07AFB641BA4100026A64207
:1033700005D170BD55F8043B98470136EEE755F886
:10338000043B98470136F2E7B03D0008B03D000825
:10339000B03D0008B43D0008704770470A449142B0
:1033A00000F1FF3300D1704710B511F8014B03F85D
:1033B000014F9142F9D110BD38B50546002941D0E1
:1033C00051F8043C0C1F002BB8BFE418FFF712FFA4
:1033D0001D4A136833B9636014602846BDE838405D
:1033E000FFF70EBFA34208D9206821188B4201BF06
:1033F00019685B6809182160EDE71A465B680BB134
:10340000A342FAD911685018A0420BD12068014498
:10341000501883421160E0D118685B68536008441B
:103420001060DAE702D90C232B60D6E72068211858
:103430008B4204BF19685B68636004BF0918216090
:103440005460CAE738BD00BF2001002051F8043C99
:10345000181F002BBCBF0B58C01870472DE9F04750
:103460008E681F46BE420B6882460C4690462DD899
:10347000B1F90C2012F4906F26D06569096905EB4B
:103480004505A3EB010905EBD5757B1C4B446D107D
:103490009D4238BF1D46530527D52946FFF72AFE12
:1034A000064660B321694A46FFF778FFA38923F4F3
:1034B000906343F08003A381266165614E44A5EBD0
:1034C00009052660A5603E46BE4200D93E462068FA
:1034D0003246414600F0A8FAA3689B1BA36023680C
:1034E000334423600020BDE8F0872A46FFF796FEAC
:1034F00006460028E0D121695046FFF75DFF0C2306
:10350000CAF80030A38943F04003A3814FF0FF3095
:10351000E9E700002DE9F04F98468B891B069DB026
:1035200007460D46144610D50B6973B94021FFF7C5
:10353000E1FD2860286130B90C233B604FF0FF307B
:103540001DB0BDE8F08F40236B6100230993202359
:103550008DF82930CDF80C803023DFF89C818DF870
:103560002A304FF0010923469A4613F8012B0AB17D
:10357000252AF9D1BAEB040B0BD05B46224629462B
:103580003846FFF76BFF013000F0A780099A5A44D4
:1035900009929AF80030002B00F09F8000234FF032
:1035A000FF32CDE905230AF1010A049307938DF850
:1035B00053301A935446052214F8011B4E48FCF769
:1035C0002FFE049AD8B9D00644BF20238DF853307B
:1035D000110744BF2B238DF853309AF800302A2B63
:1035E00015D0079A544600204FF00A0C214611F8D6
:1035F000013B303B092B4BD9B0B1079214E0A0EB53
:10360000080309FA03F313430493A246D2E7039B8A
:10361000191D1B680391002BBBBF5B4242F00202E5
:1036200007930793B8BF049223782E2B0AD16378AF
:103630002A2B32D1039B1A1D1B68039243EAE373C2
:1036400002340593DFF8C0A0217803225046FCF72E
:10365000E7FD38B1049BA0EB0A00402282401343EF
:103660000134049314F8011B24488DF82810062215
:10367000FCF7D6FD002836D0214B1BBB039B07333C
:1036800023F0070308330393099B334409936AE744
:103690000CFB02320C460120A8E7002301340593FD
:1036A00019464FF00A0C204610F8012B303A092A2F
:1036B00003D9002BC6D00591C4E70CFB01210446B9
:1036C0000123F0E703AB00932A460E4B04A93846CA
:1036D000AFF30080421C0646D6D1AB895B063FF5AE
:1036E0002DAF09982CE703AB00932A46054B04A99C
:1036F000384600F079F8EDE7743D00087E3D00089B
:10370000000000005D3400087A3D00082DE9F04714
:10371000164698468A680B69DDF820909342B8BF38
:103720001346336091F8432007460C460AB1013333
:1037300033602368990642BF3368023333602568DB
:1037400015F0060506D104F1190AE36832689B1AE0
:10375000AB4226DC94F843302268003B18BF0123BB
:1037600092062BD404F1430241463846C847013043
:103770001ED02368226903F00603042B02BFE5680C
:103780003368ED1AA3680CBF25EAE575002593425E
:10379000C4BF9B1AED1800261A34B5421AD1002076
:1037A00008E00123524641463846C847013003D15C
:1037B0004FF0FF30BDE8F0870135C6E7E1185A1C2D
:1037C000302081F84300224494F8451082F84310D9
:1037D0000233C7E70123224641463846C847013035
:1037E000E6D00136D9E700002DE9FF470F7E0C9E99
:1037F000782F914680460C469A4601F1430207D83D
:10380000622F0AD8002F00F0D280582F00F0B98024
:1038100004F1420684F842703AE0A7F16303152BE5
:10382000F6D801A151F823F0813800089538000836
:103830001138000811380008113800081138000844
:1038400095380008113800081138000811380008B0
:103850001138000895390008BF3800084F390008B2
:103860001138000811380008B7390008113800086D
:10387000BF3800081138000811380008573900080F
:1038800033681A1D1B68326004F1420684F8423026
:1038900001239DE033682068191D3160060601D5BB
:1038A0001D6803E04506FBD5B3F90050002D03DA8F
:1038B0002D236D4284F8433059480A2311E02168D2
:1038C0003368080653F8045B02D4490648BFADB21A
:1038D0006F2F5348336014BF0A230823002184F854
:1038E00043106668A660002EA2BF216821F0040183
:1038F00021600DB9002E4BD01646B5FBF3F103FB4A
:103900001157C75D06F8017D2F46BB420D46F4D91D
:10391000082B0BD12368DF0708D52369616899421A
:10392000DEBF302306F8013C06F1FF36921B226110
:10393000CDF800A04B4603AA21464046FFF7E6FE1D
:1039400001304AD14FF0FF3004B0BDE8F087236862
:1039500043F0200323603348782784F845702368B8
:1039600031681F0651F8045B02D45F0648BFADB250
:103970003160D90744BF43F0200323601DB11023F9
:10398000ACE72748E9E7236823F020032360F6E744
:103990001646BDE7336825686169181D30602E063C
:1039A0001B6801D5196002E06806FBD51980002369
:1039B00023611646BCE733681A1D32601E686268D0
:1039C00000213046FCF72CFC08B1801B6060636866
:1039D0002361002384F84330AAE72369324649462D
:1039E0004046D0470130ADD023689B0713D4E06830
:1039F000039B9842B8BF1846A6E7012332464946C2
:103A00004046D04701309DD00135E36803995B1AE9
:103A1000AB42F2DCEBE7002504F11906F5E700BF45
:103A2000853D0008963D0008884210B501EB020470
:103A300002D98442234607D8431EA14208D011F878
:103A4000012B03F8012FF8E7024401468A4200D116
:103A500010BD13F8014D02F8014DF7E7F8B500BFAE
:103A6000F8BC08BC9E467047F8B500BFF8BC08BC5F
:043A70009E467047B7
:103A74005265616C6C6F63206661696C65640000FB
:103A84002E2E2F436F72652F5372632F4D78426C25
:103A94005265706C7950726F63657373696E672ECB
:103AA40063000000426F6F746C6561646572205638
:103AB400657273696F6E2070726F63657373696E7C
:103AC400670000007625642E25642E25640000001E
:103AD400426F6F746C6561646572205665727369B8
:103AE4006F6E203A202573005375636365736675A2
:103AF4006C6C792073656E642074686520766572D9
:103B040073696F6E203A202573000000436F6D6D5A
:103B1400616E6420636F646520697320696E636FEE
:103B2400727265637420736F2077652073656E64A9
:103B3400204E41434B00000025733A25733A256417
:103B44003A25730D0A000000426F6F746C6F616454
:103B540065722069732072756E6E696E670000006D
:103B64002E2E2F436F72652F5372632F6D61696E12
:103B74002E630000427574746F6E20697320707236
:103B84006573736564000000427574746F6E206918
:103B940073206E6F74207072657373656400000027
:103BA40053657420746865206D73702076616C753C
:103BB40065203A20257800005365742074686520D8
:103BC40072657365742068616E646C6572206164EB
:103BD4006472657373203A2025780000426F6F7415
:103BE4006C6F6164657220697320657865637574B0
:103BF400696E6720636F6D6D616E64004368656311
:103C04006B73756D206661696C65640043686563F8
:103C14006B73756D207061737365640054686520FF
:103C24007061796C6F6164206973203A2000000030
:103C3400436F6D6D616E6420526573706F6E736552
:103C44005B25645D203A2030782578200000000050
:103C540043616C63756C6174656420435243203A1C
:103C640020307825780000005265636569766564C4
:103C740020435243203A203078257800496E7369F6
:103C8400646520746865204750494F732063616CF4
:103C94006C6261636B000000427574746F6E20691E
:103CA400732070726573736564207365742074681F
:103CB4006520666C61670000426C636F6D6D616EB8
:103CC4006472656164000000424C5265706C795006
:103CD400726F63657373696E670000006D61696E6E
:103CE40000000000626F6F746C6F616465725F6ADC
:103CF400756D705F746F5F757365725F617070006E
:103D0400626F6F746C6F616465725F65786563750B
:103D140074655F636F6D6D616E6400007072696ECF
:103D2400745F7468655F7061796C6F616400000032
:103D3400636865636B5F636865636B73756D0000CF
:103D440048414C5F4750494F5F455854495F436170
:103D54006C6C6261636B00000000000000000000F6
:103D6400010203040607080900000000010203041D
:103D7400232D302B2000686C4C0065666745464750
:103D840000303132333435363738394142434445D3
:103D94004600303132333435363738396162636442
:043DA4006566000050
:083DA80068C4FF7F0100000068
:043DB000F501000811
:043DB400D101000831
:103DB8000024F400100000000100000010000020A2
:103DC80000000000240100208C010020F4010020E4
:103DD80000000000000000000000000000000000DB
:103DE80000000000000000000000000000000000CB
:103DF80000000000000000000000000000000000BB
:0C3E0800000000000000000000000000AE
:04000005080013F9E3
:00000001FF
